:0400000080311D2806
:100008007E14803120007F08F1000B1F18282E0075
:10001800191A0F1E132881318B2180311828991A3B
:100028008F1E18288131A82171082000FF007E103A
:10003800090080311F28FA01FB01203084000030BC
:1000480085001430823141227E1020008231302A0E
:100058002000310803190800813150218031200027
:10006800B6003608B000300881312D21803157287C
:10007800200096171612F230F5008130F600813113
:100088006E2108002000961316160630F5008230FF
:10009800F60081316E210800DD30F5008130F60070
:1000A80081316E21080020003008483A03193C28A5
:1000B800043A03194628023A03194628173A03193D
:1000C8003C28313A03193C28043A03194628023AD5
:1000D80003194628173A03193C28502808004B34BE
:1000E8006534793462346F34613472346434203462
:1000F80054347934703465342034483420346F34BF
:100108007234203459343A3420344C34453444342D
:1001180020344F344E34203420342034543479344D
:100128007034653420344C3420346F3472342034C5
:100138004E343A3420344C344534443420344F342B
:100148004634463420340D340A340A34003420004E
:100158009A0199018030960097019801073095001F
:100168006F309100FF309200BF309300FF30940051
:100178003F303E00CE00EF30C300FF30D9000730DB
:10018800E4006F30B800DA01E501C401B901CF011C
:10019800E601BA01C501D001DB011030A6003D001F
:1001A8004B08E0391738CB0008000D344234693465
:1001B8006E346434753420346E34653477342034C6
:1001C80074347234693461346C34203455344134B5
:1001D8005234543420346F346E34203473346934D8
:1001E8006E3467346C346534203443347534723477
:1001F80069346F34733469347434793420340D3489
:100208000A3400345534413452345434203443349D
:100218006F346D346D3475346E34693463346134DD
:10022800743469346F346E347334203438342D3474
:10023800623469347434203452347834203461346C
:100248006E3464342034543478340D340A340A3427
:100258000034F3002000370803192E292E00191A3C
:100268003929730822009A004D2919127308F200DF
:100278007B08283E86008701720881000130F20061
:100288007208FB0708307B020318FB0101302000CD
:10029800B7022E0019160800F301200031080319CF
:1002A80051293208203E860087010108F2007208B1
:1002B800F3000130F2007208B20708303202031866
:1002C800B2012E00991201302000B1022E009916B9
:1002D800730808007730F70077082000B400760824
:1002E800F8007508F700F50A0319F60A770884007C
:1002F800780885000008F90079082000B50035085D
:1003080003190800350882314722813173290830E2
:10031800200037020318A5297A08283E860087019D
:10032800010822009A000130F0007008FA0708302E
:100338007A020318FA010130F00070082000B707AC
:1003480008002E001912080022009D1CAD291D125C
:100358001D161908F00020003308203E860087018A
:10036800700881000130F0007008B30708303302CC
:100378000318B3010130F0007008B10708002E001F
:1003880099121912083022009F0090309D002430E5
:100398009E0001309B009C01FB01FA010830F2002D
:1003A80072082000B700B301B201B1012E009916FE
:1003B800080020342D343E34203446346134693406
:1003C8006C34203443346F346D346D3461346E349E
:1003D80064342134213420340D34003420342D3455
:1003E8003E3420344C344534443420344F346E3455
:1003F8002134213420342034203420342034203453
:100408000D34003420342D343E3420344C344534FB
:10041800443420344F346634663421342134203453
:1004280020342034203420340D34003482313922F1
:1004380082318031AB208231823126228231813172
:10044800C3210800623031008D008F019101023014
:10045800930020309200080082311A2282318B17D3
:100468000B1780312C208231352A2F0096019701F5
:10047800980199019A019B010800640080010131EB
:10048800890B422A0034F400740881312D210800B8
:020000040001F9
:0A000E00EC3FFF3F9F3FFF3FFF3F25
:00000001FF
